:1000000036C250C24FC24FC24DC24CC24BC24AC28E
:1000100049C248C247C246C245C244C243C242C2A4
:1000200041C240C23FC299C498C49AC499C498C4FA
:1000300097C48DC48CC491C490C48FC488C487C431
:1000400086C485C484C483C48BC48AC489C488C458
:1000500087C480C47FC47EC47DC47CC47BC47AC48E
:100060007CC47BC47AC49DC49EC4A5C4A4C4A3C4D8
:10007000A2C49DC49EC499C49AC49BC48CC48DC49C
:100080008EC48FC490C491C496C495C494C493C4C0
:1000900092C481C482C483C484C485C486C487C412
:1000A0007AC47BC47CC4C6C4C5C4C7C4C6C4C5C4E2
:1000B000C4C4BAC4B9C4BEC4BDC4BCC4B5C4B4C449
:1000C000B3C4B2C4B1C4B0C4B8C4B7C4B6C4B5C470
:1000D000B4C4ADC4ACC4ABC4AAC4A9C4A8C4A7C4A6
:1000E000A9C4A8C4A7C4CAC4CBC4D2C4D1C4D0C4F0
:1000F000CFC4CAC4CBC4C6C4C7C4C8C4B9C4BAC4B4
:10010000BBC4BCC4BDC4BEC4C3C4C2C4C1C4C0C4D7
:10011000BFC4AEC4AFC4B0C4B1C4B2C4B3C4B4C429
:10012000A7C4A8C4A9C4F3C4F2C4F4C4F3C4F2C4F9
:10013000F1C4E7C4E6C4EBC4EAC4E9C4E2C4E1C460
:10014000E0C4DFC4DEC4DDC4E5C4E4C4E3C4E2C487
:10015000E1C4DAC4D9C4D8C4D7C4D6C4D5C4D4C4BD
:10016000D6C4D5C4D4C4F7C4F8C4FFC4FEC4FDC407
:10017000FCC4F7C4F8C4F3C4F4C4F5C4E6C4E7C4CB
:10018000E8C4E9C4EAC4EBC4F0C4EFC4EEC4EDC4EF
:10019000ECC4DBC4DCC4DDC4DEC4DFC4E0C4E1C441
:1001A000D4C4D5C4D6C420C51FC521C520C51FC50C
:1001B0001EC514C513C518C517C516C50FC50EC570
:1001C0000DC50CC50BC50AC512C511C510C50FC597
:1001D0000EC507C506C505C504C503C502C501C5CD
:1001E00003C502C501C524C525C52CC52BC52AC517
:1001F00029C524C525C520C521C522C513C514C5DB
:1002000015C516C517C518C51DC51CC51BC51AC5FE
:1002100019C508C509C50AC50BC50CC50DC50EC550
:1002200001C502C503C54DC54CC54EC54DC54CC520
:100230004BC541C540C545C544C543C53CC53BC587
:100240003AC539C538C537C53FC53EC53DC53CC5AE
:100250003BC534C533C532C531C530C52FC52EC5E4
:1002600030C52FC52EC551C552C559C558C557C52E
:1002700056C551C552C54DC54EC54FC540C541C5F2
:1002800042C543C544C545C54AC549C548C547C516
:1002900046C535C536C537C538C539C53AC53BC568
:1002A0002EC52FC530C57AC579C57BC57AC579C538
:1002B00078C56EC56DC572C571C570C569C568C59F
:1002C00067C566C565C564C56CC56BC56AC569C5C6
:1002D00068C561C560C55FC55EC55DC55CC55BC5FC
:1002E0005DC55CC55BC57EC57FC586C585C584C546
:1002F00083C57EC57FC57AC57BC57CC56DC56EC50A
:100300006FC570C571C572C577C576C575C574C52D
:1003100073C562C563C564C565C566C567C568C57F
:100320005BC55CC55DC5A6C5A5C5A7C5A6C5A5C554
:10033000A4C59AC599C59EC59DC59CC595C594C5BE
:1003400093C592C591C590C598C597C596C595C5E5
:1003500094C58DC58CC58BC58AC589C588C587C51B
:1003600089C588C587C5AAC5ABC5B2C5B1C5B0C565
:10037000AFC5AAC5ABC5A6C5A7C5A8C599C59AC529
:100380009BC59CC59DC59EC5A3C5A2C5A1C5A0C54D
:100390009FC58EC58FC590C591C592C593C594C59F
:1003A00087C588C589C5F1C5F0C5F2C5F1C5F0C5D9
:1003B000EFC5E5C5E4C5E9C5E8C5E7C5E0C5DFC5E6
:1003C000DEC5DDC5DCC5DBC5E3C5E2C5E1C5E0C50D
:1003D000DFC5D8C5D7C5D6C5D5C5D4C5D3C5D2C543
:1003E000D4C5D3C5D2C5F5C5F6C5FDC5FCC5FBC58D
:1003F000FAC5F5C5F6C5F1C5F2C5F3C5E4C5E5C551
:10040000E6C5E7C5E8C5E9C5EEC5EDC5ECC5EBC574
:10041000EAC5D9C5DAC5DBC5DCC5DDC5DEC5DFC5C6
:10042000D2C5D3C5D4C5AAC6ADC6B0C6B3C6BAC6B2
:10043000B5C6C0C6BBC646000300881370170100CE
:10044000320088133200E803102700000000030088
:100450000000000001000000000080250000004BAB
:1004600000000096000000E1000000C2010011241D
:100470001FBECFE5D4E0DEBFCDBF10E0A0E6B0E008
:10048000E6E4FFE102C005900D92AE36B107D9F760
:1004900020E0AEE6B0E001C01D92AC39B207E1F752
:1004A000BDD94FCDADCD1F920F9200905F000F923E
:1004B00011242F933F934F935F936F937F938F9369
:1004C0009F93AF93BF93EF93FF93CF93DF93CDB7FA
:1004D000DEB7C7D80000DF91CF91FF91EF91BF91B8
:1004E000AF919F918F917F916F915F914F913F91CC
:1004F0002F910F9000925F000F901F901895CF934F
:10050000DF93CDB7DEB785E490E028E0FC012083DF
:1005100085E490E025E430E0F90120812460FC01CD
:10052000208384E490E0FC01108283E490E02DE3DA
:10053000FC01208389E590E029E530E0F901208184
:100540002068FC0120830000DF91CF910895CF93B4
:10055000DF93CDB7DEB7A2970FB6F894DEBF0FBE1C
:10056000CDBF9AA389A389A19AA18436910570F081
:1005700089A19AA196958795969587959C01ABE759
:10058000B4E1F1DA9695879515D1F0C089A19AA1C9
:100590009C01215031093AA329A321E0892B09F4B8
:1005A00020E0222309F4E2C080E090E0A0E2B1E480
:1005B00089839A83AB83BC832BEA3AEA4AE250E40C
:1005C00069817A818B819C8150DCDC01CB018D8338
:1005D0009E83AF83B88789819A81AB81BC819C015E
:1005E000AD01BC01CD01CCDADC01CB0189879A8752
:1005F000AB87BC8720E030E040E85FE36D817E811F
:100600008F81988521DB88231CF481E08D87A7C02A
:1006100020E03FEF4FE757E469857A858B859C851D
:1006200020DC18160CF074C020E030E04AE754E4F7
:1006300069817A818B819C810BDBDC01CB018E8708
:100640009F87A88BB98B20E030E04AEF54E46E8599
:100650007F858889998909DCDC01CB018A8B9B8B9A
:10066000AC8BBD8B20E030E040E85FE36A897B899A
:100670008C899D89E9DA88232CF481E090E09F8BB6
:100680008E8B3BC020E03FEF4FE757E46A897B89C0
:100690008C899D89E6DB18163CF520E030E040E2CD
:1006A00051E46E857F8588899989DFDBDC01CB0188
:1006B000BC01CD0135DBDC01CB019F8B8E8B8E899C
:1006C0009F89892B09F44BC088EC90E0998F888F23
:1006D000888D998D0197F1F7998F888F8E899F89E1
:1006E00001979F8B8E8BEBCF6A897B898C899D8943
:1006F00017DBDC01CB019F8B8E8B8E899F899B8FB3
:100700008A8F8A8D9B8D0197F1F79B8F8A8F27C0E7
:1007100020E030E04FE753E46D817E818F81988542
:10072000A0DB1816A4F469857A858B859C85F8DA98
:10073000DC01CB019D8F8C8F8C8D9D8D9F8F8E8F3B
:100740008E8D9F8D0197F1F79F8F8E8F1FCF6D81BB
:100750007E818F819885E4DADC01CB018D878D85E0
:1007600088A388A18A95F1F788A310CF0000A296EC
:100770000FB6F894DEBF0FBECDBFDF91CF910895C5
:10078000CF93DF9300D0CDB7DEB79A838983898179
:100790009A819C01ADECBCECE6D99695879596952F
:1007A000879596958795D3DE00000F900F90DF9187
:1007B000CF910895CF93DF93CDB7DEB760970FB693
:1007C000F894DEBF0FBECDBF988B8F878F85988939
:1007D0009C0121503109388B2F8721E0892B09F4A6
:1007E00020E0222309F46DC080E090E0A0E8BFE3A0
:1007F00089839A83AB83BC8320E030E04AEF54E4E2
:1008000069817A818B819C8130DBDC01CB018D8316
:100810009E83AF83B88720E030E040E85FE36D81DE
:100820007E818F81988510DA88232CF481E090E016
:100830009A8789873BC020E03FEF4FE757E46D81FF
:100840007E818F8198850DDB18163CF520E030E025
:1008500040E251E469817A818B819C8106DBDC0175
:10086000CB01BC01CD015CDADC01CB019A87898721
:1008700089859A85892B09F4A9CF88EC90E09C871B
:100880008B878B859C850197F1F79C878B87898562
:100890009A8501979A878987EBCF6D817E818F81B9
:1008A00098853EDADC01CB019A87898789859A850C
:1008B0009E878D878D859E850197F1F79E878D8711
:1008C00085CF000060960FB6F894DEBF0FBECDBF97
:1008D000DF91CF910895CF93DF93CDB7DEB70000BE
:1008E000DF91CF910895CF93DF93CDB7DEB7E29735
:1008F0000FB6F894DEBF0FBECDBF80E019D31982CA
:100900008981882349F487E290E027E230E0F90109
:1009100020812F73FC0120838DE08A8381E08DA7E5
:100920008A818EA78EA5882F90E0092E000CAA0B35
:10093000BB0B41E050E02FE130E0841B950B281702
:10094000390770F08D5E9F4F8F939F93089587E3D3
:1009500090E008C084E390E005C081E390E002C02D
:1009600080E090E098AB8FA78A8189AB89A9882F16
:1009700090E0092E000CAA0BBB0B41E050E02FE1E8
:1009800030E0841B950B28173907A8F08D5C9F4F2A
:100990008F939F93089581E00FC082E00DC084E0A3
:1009A0000BC088E009C080E107C080E205C080E498
:1009B00003C080E801C080E08AAB8DA5882361F088
:1009C0008FA598A9FC0190818AA9292F282B8FA592
:1009D00098A9FC0120830DC08FA598A9FC018081F6
:1009E000982F8AA980958923282F8FA598A9FC0183
:1009F000208381E08B8381E08FA38B8188A788A5EA
:100A0000882F90E0092E000CAA0BBB0B41E050E0B0
:100A10002FE130E0841B950B2817390770F08D5AB1
:100A20009F4F8F939F93089587E390E008C084E3DE
:100A300090E005C081E390E002C080E090E09AA7DA
:100A400089A78B818BA78BA5882F90E0092E000C9E
:100A5000AA0BBB0B41E050E02FE130E0841B950B6B
:100A600028173907A8F08D589F4F8F939F930895AB
:100A700081E00FC082E00DC084E00BC088E009C0B7
:100A800080E107C080E205C080E403C080E801C0C7
:100A900080E08CA78FA1882361F089A59AA5FC012D
:100AA00090818CA5292F282B89A59AA5FC0120834C
:100AB0000DC089A59AA5FC018081982F8CA58095F1
:100AC0008923282F89A59AA5FC0120838BE08C839C
:100AD00081E089A38C818AA38AA1882F90E0092EC6
:100AE000000CAA0BBB0B41E050E02FE130E0841B6F
:100AF000950B2817390770F08D569F4F8F939F9352
:100B0000089587E390E008C084E390E005C081E3A6
:100B100090E002C080E090E09CA38BA38C818DA329
:100B20008DA1882F90E0092E000CAA0BBB0B41E091
:100B300050E02FE130E0841B950B28173907A8F00F
:100B40008D549F4F8F939F93089581E00FC082E053
:100B50000DC084E00BC088E009C080E107C080E2DE
:100B600005C080E403C080E801C080E08EA389A1B5
:100B7000882361F08BA19CA1FC0190818EA1292F7B
:100B8000282B8BA19CA1FC0120830DC08BA19CA1D3
:100B9000FC018081982F8EA180958923282F8BA11D
:100BA0009CA1FC0120838EE18D8381E08B8F8D8160
:100BB0008C8F8C8D882F90E0092E000CAA0BBB0B1C
:100BC00041E050E02FE130E0841B950B28173907F6
:100BD00070F08D529F4F8F939F93089587E390E01D
:100BE00008C084E390E005C081E390E002C080E0AB
:100BF00090E09E8F8D8F8D818F8F8F8D882F90E0CD
:100C0000092E000CAA0BBB0B41E050E02FE130E0B5
:100C1000841B950B28173907A8F08D509F4F8F9391
:100C20009F93089581E00FC082E00DC084E00BC067
:100C300088E009C080E107C080E205C080E403C00D
:100C400080E801C080E088A38B8D882361F08D8DC2
:100C50009E8DFC01908188A1292F282B8D8D9E8D42
:100C6000FC0120830DC08D8D9E8DFC018081982F0D
:100C700088A180958923282F8D8D9E8DFC0120834E
:100C80008FE18E8381E08D8B8E818E8B8E89882F74
:100C900090E0092E000CAA0BBB0B41E050E02FE1C5
:100CA00030E0841B950B2817390770F08D5E9E4F3E
:100CB0008F939F93089587E390E008C084E390E0CA
:100CC00005C081E390E002C080E090E0988F8F8BB8
:100CD0008E81898F898D882F90E0092E000CAA0BB8
:100CE000BB0B41E050E02FE130E0841B950B28174F
:100CF0003907A8F08D5C9E4F8F939F93089581E0F4
:100D00000FC082E00DC084E00BC088E009C080E124
:100D100007C080E205C080E403C080E801C080E035
:100D20008A8F8D89882361F08F89988DFC0190814D
:100D30008A8D292F282B8F89988DFC0120830DC047
:100D40008F89988DFC018081982F8A8D80958923C9
:100D5000282F8F89988DFC01208380E28F8381E08A
:100D60008F878F81888B8889882F90E0092E000CCF
:100D7000AA0BBB0B41E050E02FE130E0841B950B48
:100D80002817390770F08D5A9E4F8F939F930895BF
:100D900087E390E008C084E390E005C081E390E041
:100DA00002C080E090E09A8B898B8F818B8B8B893E
:100DB000882F90E0092E000CAA0BBB0B41E050E0FD
:100DC0002FE130E0841B950B28173907A8F08D58C8
:100DD0009E4F8F939F93089581E00FC082E00DC0D6
:100DE00084E00BC088E009C080E107C080E205C054
:100DF00080E403C080E801C080E08C8B8F8588236D
:100E000061F089899A89FC0190818C89292F282B8E
:100E100089899A89FC0120830DC089899A89FC01FE
:100E20008081982F8C8980958923282F89899A8998
:100E3000FC01208389E08887198688858A878A85CE
:100E4000882F90E0092E000CAA0BBB0B41E050E06C
:100E50002FE130E0841B950B2817390770F08D5671
:100E60009E4F8F939F93089587E390E008C084E39B
:100E700090E005C081E390E002C080E090E09C87B4
:100E80008B8788858D878D85882F90E0092E000CB3
:100E9000AA0BBB0B41E050E02FE130E0841B950B27
:100EA00028173907A8F08D549E4F8F939F9308956C
:100EB00081E00FC082E00DC084E00BC088E009C073
:100EC00080E107C080E205C080E403C080E801C083
:100ED00080E08E878985882361F08B859C85FC0165
:100EE00090818E85292F282B8B859C85FC01208362
:100EF0000DC08B859C85FC018081982F8E85809507
:100F00008923282F8B859C85FC0120830000E29695
:100F10000FB6F894DEBF0FBECDBFDF91CF9108951D
:100F2000CF93DF93CDB7DEB70000DF91CF91089567
:100F3000CF93DF93CDB7DEB728970FB6F894DEBF17
:100F40000FBECDBF8887888581709DE099838A8395
:100F500089818B838B81882F90E0092E000CAA0B4E
:100F6000BB0B41E050E02FE130E0841B950B2817CC
:100F7000390770F08D529E4F8F939F93089588E3A9
:100F800090E008C085E390E005C082E390E002C0F5
:100F900080E090E09D838C8389818E838E81882F71
:100FA00090E0092E000CAA0BBB0B41E050E02FE1B2
:100FB00030E0841B950B28173907A8F08D509E4F01
:100FC0008F939F93089581E00FC082E00DC084E06D
:100FD0000BC088E009C080E107C080E205C080E462
:100FE00003C080E801C080E08F838A81882361F09C
:100FF0008C819D81FC0190818F81292F282B8C81F0
:101000009D81FC0120830DC08C819D81FC0180812C
:10101000982F8F8180958923282F8C819D81FC01B9
:101020002083000028960FB6F894DEBF0FBECDBF18
:10103000DF91CF910895CF93DF9300D0CDB7DEB786
:101040009A8389838091800090918100892B21F47B
:1010500088E090E09A838983209172003091730038
:1010600089819A812817390759F089819A8190934B
:101070007300809372002ED082E390E09BD301C076
:1010800000000F900F90DF91CF910895CF93DF93E1
:10109000CDB7DEB788E090E0909373008093720044
:1010A0000000DF91CF910895CF93DF9300D0CDB7AB
:1010B000DEB79A83898380917200909173000897BC
:1010C00019F489819A81B7DF00000F900F90DF91AA
:1010D000CF910895CF93DF93CDB7DEB70BD3909325
:1010E0006F0080936E000000DF91CF910895CF9341
:1010F000DF931F92CDB7DEB7FDD29C0180916E00C9
:1011000090916F00B9016ED41CD089838981282FFA
:1011100030E080917000909171002817390761F0DC
:101120008981882F90E09093710080937000809166
:10113000700090917100FCDE00000F90DF91CF9164
:101140000895CF93DF9300D0CDB7DEB79A8389831C
:101150008091720090917300092E000CAA0BBB0BBA
:1011600040E050E027E030E0841B950B281739075A
:1011700028F18D5E9D4F8F939F93089589819A8169
:101180006FD01FC089819A81B2D01BC089819A819A
:10119000E4D017C089819A817FD013C089819A8158
:1011A00013D10FC089819A8100D10BC089819A81A6
:1011B00063D107C089819A81A5D103C089819A81B1
:1011C00039D00F900F90DF91CF910895CF93DF9397
:1011D00000D01F92CDB7DEB79A8389836B838B8152
:1011E000882F90E09C01220F331F89819A81281754
:1011F000390714F480E018C08B81282F30E08981F2
:101200009A812817390744F48B81982F990F898187
:10121000292F281B822F08C089819A811816190648
:1012200014F4898101C080E00F900F900F90DF913E
:10123000CF910895CF93DF9300D0CDB7DEB79A83D7
:10124000898380E00F900F90DF91CF910895CF9325
:10125000DF93CDB7DEB71ADF80E0DF91CF9108953D
:10126000CF93DF9300D0CDB7DEB79A83898389818E
:101270009A81969587959A83898389819A814597E2
:1012800010F0E5DF04C089819A816AE09FDF0F904A
:101290000F90DF91CF9108951F93CF93DF9300D0EC
:1012A00000D0CDB7DEB79C838B838B819C819695D4
:1012B0008795969587959A83898389819A81893CB8
:1012C000910514F0C4DF0BC089819A816AE07EDF4A
:1012D000182F89819A8188976AE078DF810F0F90B3
:1012E0000F900F900F90DF91CF911F910895CF93A2
:1012F000DF9300D000D0CDB7DEB79C838B834B81CA
:101300005C81CA01929582958F7089279F70892789
:101310009C01A3E6B0E127D4BC017695679576954C
:1013200067957695679520ED37E0629FC001639FD2
:10133000900D729F900D11249A01281B390BC90141
:101340009A83898389819A816AE040DF0F900F90A8
:101350000F900F90DF91CF910895CF93DF9300D03E
:1013600000D0CDB7DEB79C838B838B819C819C01A1
:10137000ADECBCECF8D396958795969587959695A8
:1013800087959A83898389819A818D38910510F098
:101390005EDF04C089819A8164E118DF0F900F90AD
:1013A0000F900F90DF91CF910895CF93DF9300D0EE
:1013B000CDB7DEB79A83898389819A816DDF0F90DB
:1013C0000F90DF91CF910895CF93DF93CDB7DEB724
:1013D00028970FB6F894DEBF0FBECDBF98878F83D6
:1013E0008F8198859C01ADECBCECBDD3969587951B
:1013F00096958795969587959A83898349815A8191
:101400009A01ADECBCECAFD39C0136952795329593
:1014100022952F7023273F70232768E2629FC00127
:10142000639F900D11249A01281B390BC9019C83DD
:101430008B8389819A819C01ADECBCEC94D3969509
:101440008795929582958F7089279F7089279E83B3
:101450008D838D819E810B9710F0F9DE04C08B8106
:101460009C8164E1B3DE28960FB6F894DEBF0FBE10
:10147000CDBFDF91CF910895CF93DF9300D000D0FF
:1014800000D0CDB7DEB79E838D838D819E819C0178
:10149000ADECBCEC68D39695879596958795969517
:1014A00087959A83898349815A819A01ADECBCEC76
:1014B0005AD39C0136952795329522952F70232774
:1014C0003F70232768E2629FC001639F900D112443
:1014D0009A01281B390BC9019C838B8389819A81CE
:1014E0008135910510F0B3DE04C08B819C8164E1ED
:1014F0006DDE26960FB6F894DEBF0FBECDBFDF912E
:10150000CF910895CF93DF93CDB7DEB728970FB66D
:10151000F894DEBF0FBECDBF98878F838F819885EB
:101520009C01ADECBCEC1FD396958795969587955D
:10153000969587959A83898349815A819A01ADEC62
:10154000BCEC11D39C0136952795329522952F70CE
:1015500023273F70232768E2629FC001639F900D9D
:1015600011249A01281B390BC9019C838B83898123
:101570009A819C01ADECBCECF6D29695879592953C
:1015800082958F7089279F7089279E838D838D8197
:101590009E810B9710F05BDE04C08B819C8164E11F
:1015A00015DE28960FB6F894DEBF0FBECDBFDF91D3
:1015B000CF910895CF93DF93CDB7DEB7F89481E054
:1015C000DF91CF910895CF93DF9300D0CDB7DEB7F1
:1015D0009A8389838FE590E029813A81F9012081FE
:1015E000FC01208300000F900F90DF91CF910895B0
:1015F000CF93DF9300D000D000D0CDB7DEB78FE51A
:1016000090E0FC0180818E83D5DF8D838D818823DE
:1016100071F08091740090917500A0917600B09166
:10162000770089839A83AB83BC831D82EFCFCE0181
:101630000696C9DF89819A81AB81BC81BC01CD014D
:1016400026960FB6F894DEBF0FBECDBFDF91CF91C7
:101650000895CF93DF93CDB7DEB70000DF91CF9130
:101660000895CF93DF93CDB7DEB7D5D180916000D9
:101670008150809360009091600081E0992309F08F
:1016800080E0882319F081EE809360000000DF91F4
:10169000CF910895CF93DF9300D000D0CDB7DEB7C0
:1016A000A7DFDC01CB0189839A83AB83BC8389816B
:1016B0009A81AB81BC81B695A795979587958983CB
:1016C0009A83AB83BC8389819A81AB81BC81BC0145
:1016D000CD010F900F900F900F90DF91CF91089553
:1016E000CF93DF93CDB7DEB7D5DFDC01CB01DF9140
:1016F000CF910895CF93DF93CDB7DEB779DFDC01CB
:10170000CB01DF91CF910895CF93DF93CDB7DEB7B3
:10171000C1DFDC01CB0128EE33E040E050E0BC014A
:10172000CD01FFD1DA01C901BC01CD01DF91CF911B
:101730000895CF93DF93CDB7DEB7E6DFDC01CB01B1
:10174000DF91CF910895CF93DF93CDB7DEB7A2DFBE
:10175000DC01CB0120E63AEE40E050E0BC01CD01D7
:10176000E0D1DA01C901DF91CF910895CF93DF93E2
:1017700000D000D0CDB7DEB79C838B83B1DF9A83D6
:101780008983AEDF9C0189819A81B9012BD19C01AB
:1017900041E08B819C812817390708F040E0442301
:1017A00009F0EFCF00000F900F900F900F90DF9196
:1017B000CF910895CF93DF9300D000D000D0CDB764
:1017C000DEB79E838D838CDF9A83898342DF88DF37
:1017D0009C0189819A81B90105D19C838B832B81DE
:1017E0003C818D819E812817390708F4EFCF0000D6
:1017F00026960FB6F894DEBF0FBECDBFDF91CF9116
:101800000895CF93DF93CDB7DEB76DD82AD188DBAB
:1018100076D61CD10000DF91CF910895CF93DF934E
:10182000CDB7DEB7EEDF80E090E0DF91CF91089595
:10183000CF93DF9300D0CDB7DEB79A8389838981B8
:101840009A81FC01848D958D880F991F880F991FAF
:10185000865A9B4F92D0DC01CB01BC01CD010F9089
:101860000F90DF91CF910895CF93DF93CDB7DEB77F
:1018700088E790E075D00000DF91CF910895CF9375
:10188000DF93CDB7DEB788E790E06AD00000DF9144
:10189000CF910895CF93DF9300D0CDB7DEB79A8371
:1018A000898389819A8166E374E07FD000000F907C
:1018B0000F90DF91CF910895CF93DF93CDB7DEB72F
:1018C00088E790E0E7DFDBDF0000DF91CF9108954C
:1018D000CF93DF93CDB7DEB72091840030918500A0
:1018E00080918200909183002817390740F48091FD
:1018F0008200909183009093850080938400809172
:101900008400909185008938934130F088E893E114
:101910009093850080938400209188003091890005
:1019200080918600909187002817390740F48091B4
:101930008600909187009093890080938800809121
:10194000880090918900893E934030F088EE93E0C2
:1019500090938900809388000000DF91CF910895D3
:10196000CF93DF9300D0CDB7DEB79A838983000091
:101970000F900F90DF91CF910895CF93DF9300D018
:101980001F92CDB7DEB79B838A838A819B81BC017E
:10199000CE0101966FD0DC01CB01BC01CD010F90CF
:1019A0000F900F90DF91CF910895CF93DF9300D0E8
:1019B00000D01F92CDB7DEB79B838A837D836C8373
:1019C0002C813D818A819B81A901BC01CE010196B8
:1019D00089D000000F900F900F900F900F90DF9123
:1019E000CF910895CF93DF9300D000D0CDB7DEB76D
:1019F0009A8389837C836B832B813C8189819A8143
:101A0000A901481B590BCA010F900F900F900F901E
:101A1000DF91CF910895CF93DF93CDB7DEB780915B
:101A2000740090917500A0917600B09177000196B6
:101A3000A11DB11D8093740090937500A093760052
:101A4000B09377000000DF91CF910895CF93DF939B
:101A5000CDB7DEB784E090E0EEDA0000DF91CF9101
:101A60000895CF93DF93CDB7DEB778940000DF9170
:101A7000CF910895CF93DF93CDB7DEB72E970FB6F2
:101A8000F894DEBF0FBECDBF9C878B877E876D87A6
:101A90008D859E859A83898389819A819C01F9012C
:101AA00085919591A591B4919F018B839C83AD8382
:101AB000BE833A8329838B819C81AD81BE818F83D4
:101AC0009887A987BA878F819885A985BA85BC012F
:101AD000CD012E960FB6F894DEBF0FBECDBFDF91BD
:101AE000CF910895CF93DF9300D000D000D0CDB731
:101AF000DEB79A8389837C836B835E834D832D81DC
:101B00003E818B819C8144E250E0B90111D20000FA
:101B100026960FB6F894DEBF0FBECDBFDF91CF91F2
:101B20000895A1E21A2EAA1BBB1BFD010DC0AA1F1E
:101B3000BB1FEE1FFF1FA217B307E407F50720F036
:101B4000A21BB30BE40BF50B661F771F881F991FB1
:101B50001A9469F760957095809590959B01AC01FA
:101B6000BD01CF010895A29FB001B39FC001A39F03
:101B700001D0B29F700D811D1124911D0895505800
:101B8000BB27AA270ED033C124D130F029D120F0B1
:101B900031F49F3F11F41EF419C10EF4E095E7FBF8
:101BA0000FC1E92F35D180F3BA1762077307840795
:101BB000950718F071F49EF54DC10EF4E0950B2ECB
:101BC000BA2FA02D0B01B90190010C01CA01A0018F
:101BD0001124FF27591B99F0593F50F4503E68F1EA
:101BE0001A16F040A22F232F342F4427585FF3CF2B
:101BF000469537952795A795F0405395C9F77EF4FC
:101C00001F16BA0B620B730B840BBAF09150A1F044
:101C1000FF0FBB1F661F771F881FC2F70EC0BA0FCA
:101C2000621F731F841F48F4879577956795B79552
:101C3000F7959E3F08F0B3CF9395880F08F099274A
:101C4000EE0F97958795089597D008F481E0089551
:101C50000CD0CDC0C5D040F0BCD030F021F45F3FF7
:101C600019F0AEC05111F7C0B1C0D2D098F399238A
:101C7000C9F35523B1F3951B550BBB27AA27621750
:101C80007307840738F09F5F5F4F220F331F441F95
:101C9000AA1FA9F333D00E2E3AF0E0E830D09150CD
:101CA0005040E695001CCAF729D0FE2F27D0660FBA
:101CB000771F881FBB1F261737074807AB07B0E8F9
:101CC00009F0BB0B802DBF01FF2793585F4F2AF00F
:101CD0009E3F510568F074C0BEC05F3FECF3983E74
:101CE000DCF3869577956795B795F7959F5FC9F76C
:101CF000880F911D9695879597F90895E1E0660FF5
:101D0000771F881FBB1F621773078407BA0720F06D
:101D1000621B730B840BBA0BEE1F88F7E0950895D6
:101D20007FD088F09F5790F0B92F9927B751A0F036
:101D3000D1F0660F771F881F991F1AF0BA95C9F75F
:101D400012C0B13081F086D0B1E0089583C0672F12
:101D5000782F8827B85F39F0B93FCCF3869577950F
:101D60006795B395D9F73EF49095809570956195F8
:101D70007F4F8F4F9F4F0895990F0008550FAA0B63
:101D8000E0E8FEEF16161706E807F907C0F012168E
:101D90001306E407F50798F0621B730B840B950B91
:101DA00039F40A2661F0232B242B252B21F40895E6
:101DB0000A2609F4A140A6958FEF811D811D089583
:101DC00097F99F6780E870E060E008959FEF80ECEE
:101DD000089500240A941616170618060906089591
:101DE00000240A9412161306140605060895092EF7
:101DF0000394000C11F4882352F0BB0F40F4BF2B66
:101E000011F460FF04C06F5F7F4F8F4F9F4F0895A5
:101E100057FD9058440F551F59F05F3F71F047959B
:101E2000880F97FB991F61F09F3F79F08795089580
:101E3000121613061406551FF2CF4695F1DF08C09F
:101E4000161617061806991FF1CF869571056105BC
:101E500008940895E894BB2766277727CB0197F964
:101E600008958ADF08F48FEF08950BD0C0CFB1DF5B
:101E700028F0B6DF18F0952309F0A2CFA7CF1124E0
:101E8000EACFC6DFA0F3959FD1F3950F50E0551F21
:101E9000629FF001729FBB27F00DB11D639FAA27BF
:101EA000F00DB11DAA1F649F6627B00DA11D661F0E
:101EB000829F2227B00DA11D621F739FB00DA11D2F
:101EC000621F839FA00D611D221F749F3327A00DE9
:101ED000611D231F849F600D211D822F762F6A2F85
:101EE00011249F5750408AF0E1F088234AF0EE0F0A
:101EF000FF1FBB1F661F771F881F91505040A9F717
:101F00009E3F510570F05CCFA6CF5F3FECF3983E4B
:101F1000DCF3869577956795B795F795E7959F5F7D
:101F2000C1F7FE2B880F911D9695879597F9089517
:101F3000FB01DC0102C005900D9241505040D8F7E2
:061F40000895F894FFCFA4
:0E1F4600E10600030006000300060003000091
:00000001FF
