:1000000036C050C04FC04FC04DC04CC04BC04AC09E
:1000100049C048C047C046C045C044C043C042C0B4
:1000200041C040C03FC069C169C169C169C168C1FF
:1000300069C168C166C180250000004B00000096C0
:10004000000000E1000000C2010046000300881328
:1000500070170100320088133200E80310270000F7
:100060000000030000000000010000000000112457
:100070001FBECFE5D4E0DEBFCDBF10E0A0E6B0E00C
:10008000E6E5F5E002C005900D92A236B107D9F77A
:1000900020E0A2E6B0E001C01D92A039B207E1F76E
:1000A00018D257C2ADCF1F920F920FB60F921124E4
:1000B0002F933F934F935F936F937F938F939F9370
:1000C000AF93BF93EF93FF9345D1FF91EF91BF9112
:1000D000AF919F918F917F916F915F914F913F91E0
:1000E0002F910F900FBE0F901F90189588E085BD3F
:1000F00085B5846085BD14BC8DE383BD89B78068F8
:1001000089BF0895009741F0EFECF7E03197F1F7E0
:1001100000C000000197F6CF08958436910528F0BD
:1001200064E670E0D7D1CB01EDCF019728F02AE14A
:100130002A95F1F700C0F9CF08956AE070E0CAD1BE
:10014000CB01EBCF0895089580FF02C0C19A0895B6
:10015000C198089580E0F8DF87B18F7387B9B99AA5
:100160008B9A8F9A889A899A8A9A8D98089588E0AE
:1001700090E0909363008093620008950FD1909374
:100180006700809366000895209174003091750097
:10019000232B11F488E090E02091620030916300FD
:1001A0008217930741F09093630080936200E6DF2B
:1001B00082E390E01CC108952091620030916300B9
:1001C0002830310509F4E0CF0895262F30E0A90149
:1001D000440F551F481759075CF02817390724F4B6
:1001E000660F681B862F0895181619060CF40895DB
:1001F00080E0089580E0089588E090E090936300A7
:100200008093620080E008959695879585319105E9
:1002100010F46AE0DACF88E090E090936300809376
:10022000620080E008950F931F93CF938C01169581
:10023000079516950795093C110540F088E090E078
:10024000909363008093620080E009C06AE0C80177
:10025000BCDFC82F6AE0C8018897B7DF8C0FCF9149
:100260001F910F91089560ED77E034D16AE0ADCF32
:100270006AE070E02FD1CB016D38710510F464E1B4
:10028000A4CF88E090E0909363008093620080E0C8
:100290000895C9CF6AE070E01DD1CB0161357105C9
:1002A00028F468E270E016D164E18FCF88E090E036
:1002B000909363008093620080E00895803321E191
:1002C000920748F46AE070E005D1CB0168E270E083
:1002D00001D164E17ACF88E090E09093630080934D
:1002E000620080E00895E0916200F0916300E830E0
:1002F000F10548F4ED5EFF4F099486CFB4CFB8CF37
:1003000092CFC8CFDBCF80E0089548D0209166001F
:1003100030916700821B930BE6DF282F30E040917D
:100320006400509165002417350729F0309365006B
:100330002093640009CF0895C1CF2FB7F89460913E
:1003400068007091690080916A0090916B002FBFE6
:10035000089508958091680090916900A0916A00C5
:10036000B0916B000196A11DB11D80936800909320
:100370006900A0936A00B0936B0080916000815087
:1003800009F481EE809360000895D7DF96958795F4
:10039000779567950895F9DFCB010895CEDFCB01FE
:1003A0000895F3DF28EE33E040E050E0A7D0CA0123
:1003B000B9010895F6DFCB010895E7DF20E63AEEB4
:1003C00040E050E09BD0C90108950F931F93CF9355
:1003D000DF93EC01E0DF8C01DEDF801B910B8C17DB
:1003E0009D07D0F3DF91CF911F910F9108950F9347
:1003F0001F93CF93DF93EC01CEDF8C01CCDF801B0A
:10040000910B8C179D07D0F3DF91CF911F910F9126
:100410000895A0DE789497DE69DEC1E084E690E07E
:10042000D4DF82B38C2782BBF9CFDC015C96ED91DF
:10043000FC915D97EE0FFF1FEE0FFF1FEA5CFF4F71
:10044000659175918591949108950895089544E278
:1004500050E06AE470E074C08CE690E0F8CF8091E0
:1004600076009091770020917800309179002817DC
:10047000390720F490937900809378008091780078
:10048000909179008938934130F088E893E1909316
:1004900079008093780080917A0090917B00209180
:1004A0007C0030917D002817390720F490937D005F
:1004B00080937C0080917C0090917D00893E9340E8
:1004C00030F088EE93E090937D0080937C00089557
:1004D00008959FDFAA1BBB1B51E107C0AA1FBB1FCA
:1004E000A617B70710F0A61BB70B881F991F5A95C0
:1004F000A9F780959095BC01CD010895A1E21A2E2F
:10050000AA1BBB1BFD010DC0AA1FBB1FEE1FFF1FB7
:10051000A217B307E407F50720F0A21BB30BE40B07
:10052000F50B661F771F881F991F1A9469F760954E
:100530007095809590959B01AC01BD01CF01089508
:10054000FB01DC0102C005900D9241505040D8F7EC
:060550000895F894FFCFAE
:02055600E100C2
:00000001FF
